{
  "_format": "hh-sol-artifact-1",
  "contractName": "WavePortal",
  "sourceName": "contracts/WavePortal.sol",
  "abi": [
    {
      "inputs": [],
      "stateMutability": "payable",
      "type": "constructor"
    },
    {
      "anonymous": false,
      "inputs": [
        {
          "indexed": true,
          "internalType": "address",
          "name": "from",
          "type": "address"
        },
        {
          "indexed": false,
          "internalType": "uint256",
          "name": "timestamp",
          "type": "uint256"
        },
        {
          "indexed": false,
          "internalType": "string",
          "name": "message",
          "type": "string"
        }
      ],
      "name": "NewWave",
      "type": "event"
    },
    {
      "inputs": [],
      "name": "getAllWaves",
      "outputs": [
        {
          "components": [
            {
              "internalType": "address",
              "name": "waver",
              "type": "address"
            },
            {
              "internalType": "string",
              "name": "message",
              "type": "string"
            },
            {
              "internalType": "uint256",
              "name": "timestamp",
              "type": "uint256"
            }
          ],
          "internalType": "struct WavePortal.Wave[]",
          "name": "",
          "type": "tuple[]"
        }
      ],
      "stateMutability": "view",
      "type": "function"
    },
    {
      "inputs": [],
      "name": "getTotalWaves",
      "outputs": [
        {
          "internalType": "uint256",
          "name": "",
          "type": "uint256"
        }
      ],
      "stateMutability": "view",
      "type": "function"
    },
    {
      "inputs": [
        {
          "internalType": "address",
          "name": "",
          "type": "address"
        }
      ],
      "name": "lastWavedAt",
      "outputs": [
        {
          "internalType": "uint256",
          "name": "",
          "type": "uint256"
        }
      ],
      "stateMutability": "view",
      "type": "function"
    },
    {
      "inputs": [],
      "name": "totalWaves",
      "outputs": [
        {
          "internalType": "uint256",
          "name": "",
          "type": "uint256"
        }
      ],
      "stateMutability": "view",
      "type": "function"
    },
    {
      "inputs": [
        {
          "internalType": "string",
          "name": "_message",
          "type": "string"
        }
      ],
      "name": "wave",
      "outputs": [],
      "stateMutability": "nonpayable",
      "type": "function"
    }
  ],
  "bytecode": "0x60806040526200003360405180606001604052806039815260200162001693603991396200008d60201b620006b81760201c565b60644442620000439190620002c5565b6200004f919062000362565b60018190555062000087604051806060016040528060278152602001620016cc602791396001546200013060201b620007511760201c565b62000409565b6200012d81604051602401620000a4919062000251565b6040516020818303038152906040527f41304fac000000000000000000000000000000000000000000000000000000007bffffffffffffffffffffffffffffffffffffffffffffffffffffffff19166020820180517bffffffffffffffffffffffffffffffffffffffffffffffffffffffff8381831617835250505050620001d660201b60201c565b50565b620001d282826040516024016200014992919062000275565b6040516020818303038152906040527f9710a9d0000000000000000000000000000000000000000000000000000000007bffffffffffffffffffffffffffffffffffffffffffffffffffffffff19166020820180517bffffffffffffffffffffffffffffffffffffffffffffffffffffffff8381831617835250505050620001d660201b60201c565b5050565b60008151905060006a636f6e736f6c652e6c6f679050602083016000808483855afa5050505050565b60006200020c82620002a9565b620002188185620002b4565b93506200022a8185602086016200032c565b6200023581620003f8565b840191505092915050565b6200024b8162000322565b82525050565b600060208201905081810360008301526200026d8184620001ff565b905092915050565b60006040820190508181036000830152620002918185620001ff565b9050620002a2602083018462000240565b9392505050565b600081519050919050565b600082825260208201905092915050565b6000620002d28262000322565b9150620002df8362000322565b9250827fffffffffffffffffffffffffffffffffffffffffffffffffffffffffffffffff038211156200031757620003166200039a565b5b828201905092915050565b6000819050919050565b60005b838110156200034c5780820151818401526020810190506200032f565b838111156200035c576000848401525b50505050565b60006200036f8262000322565b91506200037c8362000322565b9250826200038f576200038e620003c9565b5b828206905092915050565b7f4e487b7100000000000000000000000000000000000000000000000000000000600052601160045260246000fd5b7f4e487b7100000000000000000000000000000000000000000000000000000000600052601260045260246000fd5b6000601f19601f8301169050919050565b61127a80620004196000396000f3fe608060405234801561001057600080fd5b50600436106100575760003560e01c8063291bcab31461005c578063449d46c01461007a5780639a2cdc0814610096578063a42a4663146100b4578063bd43a908146100e4575b600080fd5b610064610102565b6040516100719190610f0c565b60405180910390f35b610094600480360381019061008f9190610a9a565b610108565b005b61009e610504565b6040516100ab9190610f0c565b60405180910390f35b6100ce60048036038101906100c99190610a71565b61054f565b6040516100db9190610f0c565b60405180910390f35b6100ec610567565b6040516100f99190610dc3565b60405180910390f35b60005481565b42601e600360003373ffffffffffffffffffffffffffffffffffffffff1673ffffffffffffffffffffffffffffffffffffffff168152602001908152602001600020546101559190611029565b10610195576040517f08c379a000000000000000000000000000000000000000000000000000000000815260040161018c90610ecc565b60405180910390fd5b42600360003373ffffffffffffffffffffffffffffffffffffffff1673ffffffffffffffffffffffffffffffffffffffff1681526020019081526020016000208190555060016000808282546101eb9190611029565b925050819055506102326040518060400160405280601881526020017f25732068617320776176656420616e642073616964202573000000000000000081525033836107ed565b600260405180606001604052803373ffffffffffffffffffffffffffffffffffffffff16815260200183815260200142815250908060018154018082558091505060019003906000526020600020906003020160009091909190915060008201518160000160006101000a81548173ffffffffffffffffffffffffffffffffffffffff021916908373ffffffffffffffffffffffffffffffffffffffff16021790555060208201518160010190805190602001906102f1929190610951565b506040820151816002015550506064600154444261030f9190611029565b6103199190611029565b610323919061112f565b60018190555061036a6040518060400160405280601281526020017f47656e65726174656420736565643a2025640000000000000000000000000000815250600154610751565b603260015410156104b1576103b46040518060400160405280601081526020017f596f7520776f6e206d66657221202573000000000000000000000000000000008152503361088c565b6000655af3107a4000905047811115610402576040517f08c379a00000000000000000000000000000000000000000000000000000000081526004016103f990610eac565b60405180910390fd5b60003373ffffffffffffffffffffffffffffffffffffffff168260405161042890610dae565b60006040518083038185875af1925050503d8060008114610465576040519150601f19603f3d011682016040523d82523d6000602084013e61046a565b606091505b50509050806104ae576040517f08c379a00000000000000000000000000000000000000000000000000000000081526004016104a590610eec565b60405180910390fd5b50505b3373ffffffffffffffffffffffffffffffffffffffff167f5f7e16dc676677766a70e9c5628aa6c54ddb8b6e5188e2ae1e1f17f1ffbea71642836040516104f9929190610f27565b60405180910390a250565b60006105476040518060400160405280601781526020017f5765206861766520256420746f74616c20776176657321000000000000000000815250600054610751565b600054905090565b60036020528060005260406000206000915090505481565b60606002805480602002602001604051908101604052809291908181526020016000905b828210156106af57838290600052602060002090600302016040518060600160405290816000820160009054906101000a900473ffffffffffffffffffffffffffffffffffffffff1673ffffffffffffffffffffffffffffffffffffffff1673ffffffffffffffffffffffffffffffffffffffff168152602001600182018054610614906110fd565b80601f0160208091040260200160405190810160405280929190818152602001828054610640906110fd565b801561068d5780601f106106625761010080835404028352916020019161068d565b820191906000526020600020905b81548152906001019060200180831161067057829003601f168201915b505050505081526020016002820154815250508152602001906001019061058b565b50505050905090565b61074e816040516024016106cc9190610de5565b6040516020818303038152906040527f41304fac000000000000000000000000000000000000000000000000000000007bffffffffffffffffffffffffffffffffffffffffffffffffffffffff19166020820180517bffffffffffffffffffffffffffffffffffffffffffffffffffffffff8381831617835250505050610928565b50565b6107e98282604051602401610767929190610e7c565b6040516020818303038152906040527f9710a9d0000000000000000000000000000000000000000000000000000000007bffffffffffffffffffffffffffffffffffffffffffffffffffffffff19166020820180517bffffffffffffffffffffffffffffffffffffffffffffffffffffffff8381831617835250505050610928565b5050565b61088783838360405160240161080593929190610e37565b6040516020818303038152906040527fe0e9ad4f000000000000000000000000000000000000000000000000000000007bffffffffffffffffffffffffffffffffffffffffffffffffffffffff19166020820180517bffffffffffffffffffffffffffffffffffffffffffffffffffffffff8381831617835250505050610928565b505050565b61092482826040516024016108a2929190610e07565b6040516020818303038152906040527f319af333000000000000000000000000000000000000000000000000000000007bffffffffffffffffffffffffffffffffffffffffffffffffffffffff19166020820180517bffffffffffffffffffffffffffffffffffffffffffffffffffffffff8381831617835250505050610928565b5050565b60008151905060006a636f6e736f6c652e6c6f679050602083016000808483855afa5050505050565b82805461095d906110fd565b90600052602060002090601f01602090048101928261097f57600085556109c6565b82601f1061099857805160ff19168380011785556109c6565b828001600101855582156109c6579182015b828111156109c55782518255916020019190600101906109aa565b5b5090506109d391906109d7565b5090565b5b808211156109f05760008160009055506001016109d8565b5090565b6000610a07610a0284610f88565b610f57565b905082815260208101848484011115610a1f57600080fd5b610a2a8482856110bb565b509392505050565b600081359050610a418161122d565b92915050565b600082601f830112610a5857600080fd5b8135610a688482602086016109f4565b91505092915050565b600060208284031215610a8357600080fd5b6000610a9184828501610a32565b91505092915050565b600060208284031215610aac57600080fd5b600082013567ffffffffffffffff811115610ac657600080fd5b610ad284828501610a47565b91505092915050565b6000610ae78383610d40565b905092915050565b610af88161107f565b82525050565b610b078161107f565b82525050565b6000610b1882610fc8565b610b228185610feb565b935083602082028501610b3485610fb8565b8060005b85811015610b705784840389528151610b518582610adb565b9450610b5c83610fde565b925060208a01995050600181019050610b38565b50829750879550505050505092915050565b6000610b8d82610fd3565b610b978185611007565b9350610ba78185602086016110ca565b610bb08161121c565b840191505092915050565b6000610bc682610fd3565b610bd08185611018565b9350610be08185602086016110ca565b610be98161121c565b840191505092915050565b6000610c01603283611018565b91507f54686520636f6e747261637420646f6573206e6f74206861766520656e6f756760008301527f682062616c6c616e63652c20536f7272792100000000000000000000000000006020830152604082019050919050565b6000610c67602783611018565b91507f57616974203330207365636f6e6473206d6665722c2069742061696e7420746860008301527f6174206c6f6e67000000000000000000000000000000000000000000000000006020830152604082019050919050565b6000610ccd602183611018565b91507f4661696c656420746f2077697468647261772066726f6d6e20636f6e7472616360008301527f74000000000000000000000000000000000000000000000000000000000000006020830152604082019050919050565b6000610d33600083610ffc565b9150600082019050919050565b6000606083016000830151610d586000860182610aef565b5060208301518482036020860152610d708282610b82565b9150506040830151610d856040860182610d90565b508091505092915050565b610d99816110b1565b82525050565b610da8816110b1565b82525050565b6000610db982610d26565b9150819050919050565b60006020820190508181036000830152610ddd8184610b0d565b905092915050565b60006020820190508181036000830152610dff8184610bbb565b905092915050565b60006040820190508181036000830152610e218185610bbb565b9050610e306020830184610afe565b9392505050565b60006060820190508181036000830152610e518186610bbb565b9050610e606020830185610afe565b8181036040830152610e728184610bbb565b9050949350505050565b60006040820190508181036000830152610e968185610bbb565b9050610ea56020830184610d9f565b9392505050565b60006020820190508181036000830152610ec581610bf4565b9050919050565b60006020820190508181036000830152610ee581610c5a565b9050919050565b60006020820190508181036000830152610f0581610cc0565b9050919050565b6000602082019050610f216000830184610d9f565b92915050565b6000604082019050610f3c6000830185610d9f565b8181036020830152610f4e8184610bbb565b90509392505050565b6000604051905081810181811067ffffffffffffffff82111715610f7e57610f7d6111ed565b5b8060405250919050565b600067ffffffffffffffff821115610fa357610fa26111ed565b5b601f19601f8301169050602081019050919050565b6000819050602082019050919050565b600081519050919050565b600081519050919050565b6000602082019050919050565b600082825260208201905092915050565b600081905092915050565b600082825260208201905092915050565b600082825260208201905092915050565b6000611034826110b1565b915061103f836110b1565b9250827fffffffffffffffffffffffffffffffffffffffffffffffffffffffffffffffff0382111561107457611073611160565b5b828201905092915050565b600061108a82611091565b9050919050565b600073ffffffffffffffffffffffffffffffffffffffff82169050919050565b6000819050919050565b82818337600083830152505050565b60005b838110156110e85780820151818401526020810190506110cd565b838111156110f7576000848401525b50505050565b6000600282049050600182168061111557607f821691505b60208210811415611129576111286111be565b5b50919050565b600061113a826110b1565b9150611145836110b1565b9250826111555761115461118f565b5b828206905092915050565b7f4e487b7100000000000000000000000000000000000000000000000000000000600052601160045260246000fd5b7f4e487b7100000000000000000000000000000000000000000000000000000000600052601260045260246000fd5b7f4e487b7100000000000000000000000000000000000000000000000000000000600052602260045260246000fd5b7f4e487b7100000000000000000000000000000000000000000000000000000000600052604160045260246000fd5b6000601f19601f8301169050919050565b6112368161107f565b811461124157600080fd5b5056fea26469706673582212206d9ba212f8af93731a376905a205c31967df07d02cea73ab2cad7f5de67d546c64736f6c634300080000334120636f6e7374727563746f7220686173206265656e20696e697469616c697365642c20616e6420686f706566756c6c792066756e6465642e496e697469616c6973656420776974682074686520666f6c6c6f77696e6720736565643a202564",
  "linkReferences": {},
  "deployedLinkReferences": {}
}